:020000040000FA
:10000000F8490020E5020000250300000902000075
:10001000290300002B0300002D0300000000000056
:1000200000000000000000000000000025020000A9
:10003000310300000000000081020000110A0000EE
:1000400037030000370300003703000037030000C8
:1000500037030000370300003703000037030000B8
:1000600037030000370300003703000037030000A8
:100070003703000037030000370300003703000098
:100080003703000037030000370300003703000088
:100090003703000037030000370300003703000078
:1000A0003703000037030000370300003703000068
:1000B0003703000037030000370300003703000058
:1000C00037030000210C0000370300003703000055
:1000D0003703000037030000370300003703000038
:1000E0003703000037030000370300003703000028
:1000F0003703000037030000370300003703000018
:100100003703000037030000370300003703000007
:1001100037030000370300003703000037030000F7
:1001200037030000370300003703000037030000E7
:1001300037030000370300003703000037030000D7
:1001400037030000370300003703000037030000C7
:1001500037030000370300003703000037030000B7
:1001600037030000370300003703000037030000A7
:100170003703000037030000370300003703000097
:100180003703000037030000370300003703000087
:100190003703000037030000370300003703000077
:1001A0003703000037030000370300003703000067
:1001B0003703000037030000370300003703000057
:1001C0003703000037030000370300003703000047
:1001D0003703000037030000370300003703000037
:1001E0003703000037030000370300003703000027
:1001F00037030000DFF80CD000F0FEF8004800479D
:1002000015120000F849002004207146084202D06F
:10021000EFF3098001E0EFF308807146004A1047D0
:10022000190900002C4B19680868B0E8F04F80F3FA
:100230000988BFF36F8F4FF0000080F3118870477B
:100240000000000008480068006880F308884FF04C
:10025000000080F3148862B661B6BFF34F8FBFF31E
:100260006F8F00DF00BF00BF08ED00E0DFF80C007B
:10027000016841F470010160704700BF88ED00E043
:10028000EFF30980BFF36F8F134B1A681EF0100F46
:1002900008BF20ED108A20E9F04F106009B44FF03C
:1002A000500080F31188BFF34F8FBFF36F8F01F0C1
:1002B0009BFF4FF0000080F3118809BC19680868A3
:1002C000B0E8F04F1EF0100F08BFB0EC108A80F3BA
:1002D0000988BFF36F8F70473C000020EFF3058063
:1002E0007047000014484FF0590101604FF01601AB
:1002F00001604FF0880101601048416841F480417D
:1003000041600F48416841F002014160416841F09D
:10031000040141600B48804707484FF0000101602D
:1003200009480047FEE7FEE7FEE7FEE7FEE7FEE7D7
:10033000FEE7FEE7FEE7FEE70001004000020040A6
:1003400000700040850A0000F501000040EA01034A
:100350009B0703D009E008C9121F08C0042AFAD27B
:1003600003E011F8013B00F8013B521EF9D270473F
:10037000D2B201E000F8012B491EFBD270470022E7
:10038000F6E710B513460A4604461946FFF7F0FF94
:10039000204610BD2DE9F05F0546002092469B46A1
:1003A00088460646814640241BE02846414647468B
:1003B000224600F042F853465A46C01A914110D3E3
:1003C00011461846224600F029F82D1A67EB01085D
:1003D0004F4622460120002100F020F817EB0009CB
:1003E0004E41201EA4F10104DFDC484631462A4676
:1003F0004346BDE8F09F0000064C074D06E0E0686C
:1004000040F0010394E8070098471034AC42F6D35B
:10041000FFF7F4FE3C2E00005C2E0000202A04DBD7
:10042000203A00FA02F1002070479140C2F1200307
:1004300020FA03F3194390407047202A04DB203A46
:1004400021FA02F00021704721FA02F3D040C2F1F4
:10045000200291400843194670474FF08040D0F881
:10046000401241F48031C0F84012704700F01F0282
:1004700001219140034A800F02EB800002680A4389
:1004800002607047040200402DE9F84F0D46044613
:10049000FFF7E3FF4FF08040484ED0F80012C4B1A0
:1004A00041F00401C0F80012102000F009FA4FF4E6
:1004B00000200090424843492844B34688426DD802
:1004C0004FF000094FF0FF324F464E46AE46012036
:1004D00015E041F00101C0F80012012000F0F0F930
:1004E0000020E6E7F2B3032839D0042802D002281E
:1004F00005D102E04FEA8E0501E04FEA4E050223E6
:100500006AB3BBFBF3F1304CDFF8BCC00C44CCF158
:10051000000C644520D80224C1F35D0ADFF8A0C0B6
:100520000AFB04F101EB0C08DFF8A0C0E0450ED88F
:10053000B1EB950F02D9A1EB950101E0C1EB95015B
:10054000914204D20A0099462746064604D040F25A
:100550000121641C8C42E1D95B1C202BD0D9401CAA
:10056000042800E000E0BDD91948009900EB86306E
:10057000184A084302EB49210843B91E08434FF0CB
:100580008041C1F84002042000F09AF906FB09F608
:10059000BBFBF6F078434000BDE8F88F5CB10E4934
:1005A0004FF08040C0F84012042000F089F9BDE807
:1005B000F84F00F09FB844F21E21F1E7001BB7008E
:1005C000800F05FD8074D21A00F7C2FFC06878045E
:1005D00000C0FFFF00FEFFFF1E4208004FF08041F9
:1005E000D1F800220243C1F80022704710B500F094
:1005F00025FA0148006810BD000000204FF080403F
:10060000D0F80002C00700D000487047001BB700B8
:100610004FF08040D0F80002800702D54FF4004030
:10062000704700207047000010B500F007FA4FF047
:100630008041D1F834024207134817D0D1F8342250
:1006400002F00702012A13D0D1F8342202F0070287
:10065000022A10D0D1F8342202F00702032A0DD06A
:10066000D1F8341201F0070104290AD0006810BD46
:100670000068400810BD0068800810BD0068C00810
:1006800010BD0068000910BD0000002010B500F08A
:10069000D5F94FF08041D1F8340210F0700F1448B2
:1006A00017D0D1F83422C2F30212012A13D0D1F8A4
:1006B0003422C2F30212022A10D0D1F83422C2F33B
:1006C0000212032A0DD0D1F83412C1F30211042909
:1006D0000AD0006810BD0068400810BD006880089E
:1006E00010BD0068C00810BD0068000910BD000002
:1006F0000000002008B510A10020096800914FF00B
:100700008041D1F8401211F4A02F13D10B488A0375
:1007100010D4C1F30800C1F38132094B801C1DF8CD
:100720000220C1F344215843491C11FB02F1B0FBE4
:10073000F1F0C00008BD000001020204001BB70078
:10074000C0C62D0070B54FF080440646D4F8500264
:1007500000F010051B48864200D90646D4F8000276
:1007600040F00400C4F80002102004F5007400F00A
:10077000A7F8206940F007002061206A20F00F00F0
:1007800020622068A4F50074C007314604D0002020
:10079000FFF77AFE064608E04FF40020FFF774FEEC
:1007A0000646D4F8500200F010050021022000F0A7
:1007B0000BF82DB9D4F8000220F00400C4F80002B0
:1007C000304670BD00B0710B2DE9F0414FF0804410
:1007D0000746D4F850020E4600F01005D4F8000287
:1007E00040F00400C4F80002102004F5007400F08A
:1007F00067F8206940F007002061206A20F00F00B0
:1008000030432062206920F0070038432061A4F5BE
:10081000007400F013F9002D05D1D4F8000220F087
:100820000400C4F80002BDE8F0810000F0B510F447
:100830007F3F2ED04FF08043D3F8F431DFF878C0FB
:10084000DFB21D4BC0F381440C3B6FEA90450CF1C5
:10085000040603EB8403012F02D0022C0DD001E02B
:10086000022C02D0AC070AD00AE0C343DC06134BCB
:1008700006D000F01F041D2C02D0634600E0334672
:100880001C68C0F38725C0F34416B540AC4314433D
:100890001C60420E52070ED0084BC0F30172183B89
:1008A00003EB82021368C0F34264C0F30450844037
:1008B000A3430B431360F0BD2C020040280200400C
:1008C00030B5012405460849A20705E0081EA1F13C
:1008D000010101DC002404E0D2F8503235EA0300C3
:1008E000F4D1204630BD000080F52000F0B5002393
:1008F0000127032507FA03F48C4309D106685C003D
:1009000005FA04FC26EA0C0602FA04F42643066003
:100910005B1C102BEED3F0BD044603A000F022FABE
:10092000204601F09DF9FEE7496E2048617264207F
:100930004661756C742048616E646C65720A0000D3
:1009400010B5094C012211462046FFF7CFFF0122C6
:1009500002212046FFF7CAFF20460122BDE81040D1
:100960000421FFF7C3BF0000C041004070B559200B
:10097000840716218822C4F80001C4F80011C4F8C5
:100980000021D4F80031002BF5D04FF04020D0F8F2
:10099000401121F0F001C0F840110120FFF71EFEC8
:1009A0000120FFF78DFF1048FFF7CCFE1120C4F89F
:1009B00034020E4D2846FFF759FD00221146284605
:1009C000FFF734FF00F09AF800F0A8F800F036F8CE
:1009D000E06B20F47F00E063E06B40F4CC00E06368
:1009E0000020C4F8000170BD00B0710B103D8057AD
:1009F00006498A691202FCD40A2804D10D220A6031
:100A00008A691202FCD408607047000000000740A9
:100A100010B5502080F31188BFF34F8FBFF36F8F55
:100A200002F040F818B104494FF0805008600020EF
:100A300080F3118810BD000004ED00E010B5FFF751
:100A400059FE0E4A4FF080439060D3F8101201F027
:100A50000701022903D002F10C0050F82100D3F85D
:100A6000201201F00F01491CB0FBF1F004491060A5
:100A700008444900B0FBF1F0506010BD00000020B8
:100A800020A107001A48016841F47001016019486B
:100A9000C16C21F00F0141F00801C1644FF08040AA
:100AA000D0F8981241F48021C0F89812D0F80812BA
:100AB00041F00201C0F808120F49D1F8042102F0F8
:100AC000F732C1F80421D1F8082102F0F732C1F859
:100AD0000821D0F8081221F00201C0F808124FF0E6
:100AE0004020D0F8401121F0F001C0F840117047CB
:100AF00088ED00E000C000400010044010B5064C36
:100B00002046FFF7B3FC2046BDE8104000224FF41A
:100B10000071FFF78BBE00000200805E10B5064C2E
:100B20002046FFF7A3FC2046BDE8104000224FF40A
:100B3000E041FFF77BBE00000300C05E10B50A4C29
:100B40004FF47A724FF00061204600F04DF82068B3
:100B500040F00050206005490220C1F800012068E3
:100B600040F08040206010BD0001054004E000E03E
:100B700010B588B00446202217496846FFF7E6FB07
:100B8000164A174B9003944204D1D0F81402C0F3D4
:100B9000022110E09C4204D1D0F81402C0F30231CB
:100BA00009E01049D0F814028C4202D1C0F302418E
:100BB00001E0C0F30251022903D05DF8210008B022
:100BC00010BD944201D09C4202D1FFF72DFDF6E703
:100BD000FFF75CFDF3E700001C2E0000000005405D
:100BE000000105400010054070B516460D4604464C
:100BF000FFF7BEFF0023B6EB500F01D9022206E03B
:100C0000B0FBF6F2130E02D0591CB2FBF1F21D43F9
:100C1000256062605B1C5A43B0FBF2F070BD0000BF
:100C200008488168C1F3000100290AD001218160D0
:100C300005494888421C4A80B0F57A7F01D90020D6
:100C40004880704700010540300000202DE9FF4139
:100C500004463C480F4600250FC88DE80F003A496E
:100C60002E464FF080408C4206D1D0F81412D0F8B6
:100C70002002C1F301652AE034498C4206D1D0F844
:100C80001412D0F82002C1F381652BE030498C4268
:100C900008D1D0F81C12D0F83002C1F3016500F081
:100CA0000F0621E02B498C4208D1D0F81C12D0F855
:100CB0003002C1F38165C0F3031615E026498C426A
:100CC00008D1D0F81C12D0F83002C1F30175C0F37E
:100CD000032609E021498C4206D1D0F81C12D0F835
:100CE00030028D0FC0F30336002020630320E06044
:100CF000A0681B490840A060E846012D02D1FFF71B
:100D0000F9FC0190002F1AD058F82510761CB1FB81
:100D1000F6F000EB5700B0FBF7F0801EB0F5803F17
:100D20000AD3B1FBF6F000EBC700B0FBF7F06FF0B1
:100D3000010101EB101001E040F040506062BDE89D
:100D4000FF810000EC2D000000000740001007406C
:100D50000020074000300740004007400050074097
:100D60000FFFF0FF0FB4054B10B503A9044A02981A
:100D700000F018F810BC5DF814FB0000071200002A
:100D80002C00002002E008C8121F08C1002AFAD176
:100D900070477047002001E001C1121F002AFBD1FB
:100DA000704700002DE9FF4F8DB00F460546002625
:100DB00006E025280BD0DDE90F1290476D1C761C4C
:100DC00028780028F5D111B03046BDE8F08F002416
:100DD000A246A1460122EC4900E0044315F8013F78
:100DE000203B02FA03F00842F7D128782A2810D0D5
:100DF0006FF02F022878A0F13001092914D80AEBEE
:100E00008A0102EB410144F0020400EB010A6D1C6F
:100E1000F0E701CF5FEA000A03D544F40054CAF1B9
:100E2000000A44F002046D1C28782E2817D115F80A
:100E3000010F44F004042A280ED06FF02F02287806
:100E4000A0F1300109290AD809EB890102EB41011F
:100E500000EB01096D1CF2E757F8049B6D1C287824
:100E60006C280FD006DC4C2817D068280DD06A28D3
:100E700014D104E0742810D07A280FD10DE044F486
:100E800000140AE044F4801401E044F4401469784A
:100E9000814202D104F580146D1C6D1C2A786E2AE3
:100EA0001FD00CDC632A31D004DC002A8BD0582AF6
:100EB00011D1A3E0642A68D0692A0CD165E0732AB5
:100EC0002ED004DC6F2A73D0702A04D19BE0752ADF
:100ED0006FD0782A6ED01046DDE90F129047761C4D
:100EE00050E1C4F30250022806D0032809D0042898
:100EF00001CF09D0066045E101CFF117C0E90061DB
:100F000040E101CF06803DE106703BE117F8040B9C
:100F10008DF8000000208DF80100EB46012003E071
:100F200057F804BB4FF0FF3061074FF0000102D4C7
:100F30000DE008F10101884649450FDA8045F8DBEC
:100F40001BF808100029F4D108E008F101018846D7
:100F50008142FADB1BF808100029F6D1DDE90F23E6
:100F6000AAEB08008146214600F036F9304400EB38
:100F7000080604E0DDE90F121BF8010B9047B8F1F9
:100F80000108F7D221464846F7E00A21C4F302538C
:100F90004FF0000B0891022B04D001CFC117032B97
:100FA00009D00AE0FF1D27F00707F7E8020108E073
:100FB00032E01FE020E000B2C117042B01D140B2A3
:100FC000C117031E71F1000307DA4FF0000CD0EBDC
:100FD0000C006CEB01012D2302E0230504D52B232B
:100FE0008DF82430012303E0E30701D02023F7E745
:100FF000984658E00A2110E010210EE010204FF032
:10100000000B08900CE010214FF0000B44F004049A
:101010004FF00809089103E008214FF0000B0891F8
:10102000C4F30253022B04D001CF0021032B06D0BE
:1010300006E0FF1D27F00707F7E8020103E080B292
:10104000042B00D1C0B24FF0000823072BD5702A23
:1010500007D0DDF820C08CF0100C5CEA0B0C05D03A
:101060000EE040238DF82430012308E050EA01030C
:1010700006D030238DF824308DF8252002239846A1
:10108000DDF820C08CF0080C5CEA0B0C0BD150EAA8
:10109000010301D1630706D530238DF824304FF0CA
:1010A0000108A9F10109582A04D038A20B9208AA14
:1010B0000A920BE03AA2F9E75B46089AFFF76AF951
:1010C0000B9B9B5C0A9A521E0A92137050EA010213
:1010D000F2D10A98ADEB000000F1200B600702D5B9
:1010E00024F4803401E04FF00109D94502DDA9EB79
:1010F0000B0000E0002000EB0B0141440890AAEB3C
:10110000010AE00306D4DDE90F232146504600F032
:1011100063F806444FF0000908E009A911F8090036
:10112000DDE90F12904709F10109761CC145F4DB96
:10113000E0030CD5DDE90F232146504600F04CF8C2
:10114000064404E0DDE90F1230209047761C089930
:10115000481E08900029F5DC08E00A980A990078F2
:10116000491C0A91DDE90F129047761CBBF1000182
:10117000ABF1010BF1DC21465046DDE90F2300F015
:1011800019F806446D1C1BE6092801003031323382
:1011900034353637383961626364656600000000B3
:1011A000303132333435363738394142434445469D
:1011B000000000002DE9F041044600251E461746B8
:1011C000880404D405E039462020B0476D1C641E15
:1011D000F9D52846BDE8F0812DE9F0410446002507
:1011E0001E469046C80301D5302700E0202788041A
:1011F00004D505E041463846B0476D1C641EF9D55C
:101200002846BDE8F08110B50446FFF7F1FB204603
:1012100010BD00001CB5FFF7A9FB4FF4E1313A48BF
:10122000FFF714FD00F0D8FFFFF7E0F9014637A003
:10123000FFF798FD3C48002000BF01F023FD00F0BF
:10124000CBFFFFF7DBF9014638A0FFF78BFD3648EF
:10125000002000BF01F016FD00F0BEFFFFF7D8F937
:10126000014638A0FFF77EFD2F48002000BF01F0A7
:1012700009FD00F0B1FFFFF7D7F9014637A0FFF7EE
:1012800071FD2948002000BF01F0FCFC00F0A4FF24
:10129000FFF7FCF9014638A0FFF764FD2248002063
:1012A00000BF01F0EFFCFFF74BFBFFF747FC00240A
:1012B00000942346802237A13848019401F0ACFB0A
:1012C00000940023802236A13748019401F0A4FB4A
:1012D00000940023802235A13648019401F09CFB44
:1012E00000940023802234A13648019401F094FB3D
:1012F00000940023802234A13648019401F08CFB35
:1013000000F032FFFEE70000000007400D0A434CEA
:101310004B5F47657443505546726571203A2025EE
:1013200038640D0A000000002C000020434C4B5F85
:1013300047657448585446726571203A20253864D0
:101340000D0A0000434C4B5F4765744C585446727D
:101350006571203A202538640D0A0000434C4B5F2C
:1013600047657450434C4B3046726571203A2025D6
:1013700038640D0A00000000434C4B5F4765745011
:10138000434C4B3146726571203A202538640D0A72
:101390000000000031306D7300000000A122000049
:1013A00035306D7300000000D12200003130306D07
:1013B0007300000071220000526973696E67466C09
:1013C00061670000B1230000437265617465546178
:1013D000736B0000492300000148406880B27047E9
:1013E000B00000202DE9F041184E0F460446F56884
:1013F0003068001D00F088FC38B9306890F82C1077
:1014000001208840316981433161601C07D137B1C7
:101410003168BDE8F0410E48091D00F0E7BC3068B6
:101420002C44AC424460316805D2B06BBDE8F04159
:10143000091D00F0C3BC706B091D00F0BFFCB06A51
:10144000844200D2B462BDE8F08100003C0000207C
:10145000BC0100202DE9F041054600F0D3FC2E4EE2
:10146000B068401CB06030682C4F10B1706940B358
:101470002DE03560B068012829D1002404EB8400F8
:1014800007EB800000F08CFC641C052CF6D323488D
:10149000643000F085FC2148783000F081FC1F4862
:1014A0008C3000F07DFC1D48A03000F079FC1B481A
:1014B000B43000F075FC1948643070631430B063C8
:1014C00005E03068E96AC06A884200D83560706A11
:1014D0000121401C70626864E86A326981401143EE
:1014E000316100EB800007EB8000291D00F07EFCDD
:1014F00000F0A8FC706900280CD03068E96AC06A66
:10150000884207D206494FF080500860BFF34F8FE2
:10151000BFF36F8FBDE8F0813C0000200801002080
:1015200004ED00E010B500F06DFC0E4C2068A0B991
:101530000D4800F035FC0C48143000F031FC0A482E
:10154000E0601430206100220C21142000F0FEFF26
:10155000206010B105A100F0F3FCBDE8104000F0E0
:1015600071BC000078000020D0010020546D725141
:101570000000000030B4026C0B46002A0BD0C1689A
:101580001144C1604468A14201D30168C16030BC0C
:101590001846FEF7DBBE30BC70472DE9F041856B85
:1015A000174604460026026C82B1C7B1E068FEF718
:1015B000CDFEE168206C091AE1602268914202D2F6
:1015C0006168081AE060022F16D017E02068A8B9F9
:1015D000606801F0D1FA0646002060600EE0A06865
:1015E000FEF7B4FE216CA0680844A06061688842E0
:1015F00004D32068A06001E005B16D1E6D1CA563D9
:101600003046BDE8F08110B50446006B00F02EFCBA
:101610002046BDE8104000F029BC000010484FF4FF
:101620008041420706D0C01D0D4920F00700411A35
:10163000C1F580410B4A00230144C2E90003083987
:10164000103A21F0070111604B600B600B1AC0E9E2
:10165000001393604FF000405360D060704700006B
:10166000F8010020A8000020144E154DA6F1A00797
:101670004FF08058DFF84C9011E000F0C3FBF068A9
:10168000C468201D00F040FBA868401EA860686880
:10169000401E686000F0D6FB2046FFF7B4FF686884
:1016A0000028EAD13868012805D9C9F80080BFF3BD
:1016B0004F8FBFF36F8F00F03BFBF0E7A8010020D6
:1016C0003C00002004ED00E02DE9F0470E46DDE986
:1016D00009841746824691009946089DA522206BF1
:1016E000FEF746FE6FF00301206B01EB8701084413
:1016F00020F00707780707D0502080F31188BFF348
:101700004F8FBFF36F8FFEE72218315C82F83410E1
:10171000315C11B1401C1028F6D3002684F84360D8
:10172000052D00D30425E562C4E91356201D00F001
:1017300042FB04F1180000F03EFB2461C5F10500F6
:101740006462A061666584F858604A46514638462E
:1017500000F070FA2060B8F1000F01D0C8F8004026
:10176000BDE8F08730B5114900E011460A688242B1
:10177000FBD34B685C18844203D14068184448602E
:10178000084643681C18944209D1084C103C246850
:10179000A24209D052681A4442600A681268026084
:1017A000814200D0086030BD0460F9E7A800002045
:1017B00070B5002441600B4D0061914206D8D11AEA
:1017C0008269914206D2011D286907E09A4203D23C
:1017D000994201D3012403E0011DE86800F0EEFA0C
:1017E000204670BD7800002010B5044600F00AFBCA
:1017F000A06B20B1002400F025FB204610BD012481
:10180000F9E773B500260098846C5CB1A26BE06BBD
:1018100082420FD3502080F31188BFF34F8FBFF364
:101820006F8FFEE7502080F31188BFF34F8FBFF317
:101830006F8FFEE7A26B82420CD294F945500A46A4
:1018400069462046FFF7A9FE0646681C04D06D1CB9
:1018500084F8455030467CBD606A0028FAD004F117
:10186000240001F0D5F90028F4D00126F2E70000A9
:1018700030B585B02B4D4BE00198002848DB039C28
:10188000606910B1201D00F03FFA04A800F0B6F81E
:10189000024601980A283BD2DFE800F00505053A28
:1018A000263705053A260298A169034601442046D9
:1018B000FFF77EFF00B3616A20468847E069012890
:1018C00026D1002000900298A169002342181946F1
:1018D000204601F05DFA78B9502080F31188BFF3FB
:1018E0004F8FBFF36F8FFEE70298A06128B1811878
:1018F00013462046FFF75CFF0AE0502080F3118872
:10190000BFF34F8FBFF36F8FFEE7204600F0AEFAB4
:10191000002201A9286800F0A9FF0028ACD105B079
:1019200030BD0000780000202DE9FC410E46054640
:1019300000F052FC01A800F061F80446019818B1CB
:1019400001F0A0F9BDE8FC81224FAEB13869006812
:10195000A8B30026291B3246386800F003FB01F0CB
:1019600091F90028EED11C494FF080500860BFF378
:101970004F8FBFF36F8FE5E7A542EBD801F082F9F7
:10198000F8682646C068C468201D00F0BDF9E0690B
:10199000012810D1A0692B46411932462046FFF795
:1019A00007FF40B100200346014600902A4620462A
:1019B00001F0EEF920B1616A20468847C2E707E0EE
:1019C000502080F31188BFF34F8FBFF36F8FFEE776
:1019D0000126BFE77800002004ED00E00648416BD7
:1019E000096829B1416BC968C96849688162704753
:1019F0004FF0FF31FAE700003C00002070B50546CB
:101A000001F04AF8064E0446B068844203D200F062
:101A100009F8012000E0002028602046B46070BD75
:101A200078000020F8B5194E1FE0C068C46805684A
:101A3000201D00F069F9616A20468847E0690128A5
:101A400013D1A0692844A84206D924616060211DF1
:101A5000F06800F0B3F908E000200346014600906A
:101A60002A46204601F094F938B1F068016800294F
:101A7000DBD13169C6E90310F8BD502080F311882D
:101A8000BFF34F8FBFF36F8FFEE700007800002099
:101A900008484068401C4FF0500080F3118804D083
:101AA000BFF34F8FBFF36F8FFEE7BFF34F8FBFF3CF
:101AB0006F8FFEE78C000020084CE068016839B1A8
:101AC000002139B10020FFF72FFFFFF7D1FEF4E727
:101AD0000121F6E7C0680068F5E700007800002003
:101AE0002DE9F041044600F08DF994F9455004F1D8
:101AF000240610E0A06C20B100212046FFF781FEF3
:101B000004E0606A48B1304601F082F808B100F0A4
:101B1000F1FA6D1E6DB2002DECDC4FF0FF3684F84B
:101B2000456000F08FF900F06DF994F9445004F12C
:101B3000100709E0206948B1384601F069F808B19A
:101B400000F0D8FA6D1E6DB2002DF3DC84F844600D
:101B5000BDE8F04100F076B92DE9F04105460026D8
:101B600000F03AFB324F386808B9FFF757FDF868C4
:101B700005424BD1C5B3083568070ED005F0070004
:101B8000C0F108000544680707D0502080F3118891
:101B9000BFF34F8FBFF36F8FFEE72DB37868854299
:101BA00034D8234910310846046801E02146044630
:101BB0006068A84202D220680028F7D138688442C1
:101BC00024D00E682068086060680836411B102920
:101BD0000FD96019420708D0502080F31188BFF355
:101BE0004F8FBFF36F8FFEE710E041606560FFF736
:101BF000B9FD61687868401A7860BA68904200D28E
:101C0000B860F86801430020C4E9000101F03AF827
:101C10000EB900F099F8700707D0502080F31188B2
:101C2000BFF34F8FBFF36F8FFEE73046BDE8F08103
:101C30009800002010B5031F4FF080741C601B1F1C
:101C400021F001011960191F044B0B6014390A605F
:101C5000091F6FF0020244380A6010BD911A00009B
:101C600010B50446016810A0FFF77CF811A0616868
:101C7000FFF778F812A0A168FFF774F813A0E168E5
:101C8000FFF770F814A02169FFF76CF815A06169DF
:101C9000FFF768F816A0A169FFF764F8E169BDE8ED
:101CA000104016A0FFF75EB8723020203D2030783B
:101CB00025780A00723120203D20307825780A00EE
:101CC000723220203D20307825780A00723320209F
:101CD0003D20307825780A00723132203D2030785E
:101CE00025780A006C7220203D20307825780A0083
:101CF000706320203D20307825780A0070737220B0
:101D00003D20307825780A00D0E9013201699A60D7
:101D1000D0E901235A604A68824201D182684A6050
:101D2000002202610868401E0860086870470000D1
:101D300010B5044C2068002802D100F099FE206004
:101D400010BD0000B0000020502080F31188BFF3C8
:101D50004F8FBFF36F8FFEE7502080F31188BFF3E2
:101D60004F8FBFF36F8FFEE70C4910B54869421CD7
:101D70004A614FF47A7290420EDD002048610B698F
:101D8000934200D90A610B6964246343B3FBF2F206
:101D9000C2F164024A60086110BD0000B00000207A
:101DA00000F108014FF0FF32C0E90112C16001618A
:101DB00000210160704700210161704730B50C6857
:101DC000621C02D000F1080202E0026904E01A4637
:101DD00053681D68A542FAD953684B6099608A60C0
:101DE000516008610168491C016030BD42684A6069
:101DF00093688B6093685960916008610168491C21
:101E000001607047502080F31188BFF34F8FBFF3FC
:101E10006F8F0A494868401C486001280CD1084867
:101E2000006810F0FF0F07D0502080F31188BFF337
:101E30004F8FBFF36F8FFEE7704700008C000020CC
:101E400004ED00E00849486828B1401E486001D10F
:101E500080F311887047502080F31188BFF34F8FB3
:101E6000BFF36F8FFEE700008C00002070B50028E4
:101E700027D0144DA0F108046068E968084207D132
:101E8000502080F31188BFF34F8FBFF36F8FFEE7B1
:101E900022683AB1502080F31188BFF34F8FBFF30F
:101EA0006F8FFEE78843606000F096F960686968AC
:101EB000084468602046FFF755FCBDE8704000F01C
:101EC000E1BE70BD980000204FF0E02000210161CC
:101ED000816105494FF47A720968B1FBF2F1491E3C
:101EE00041610721016170470000002010B5FEF735
:101EF000F5F9114910280ED300F1E02090F8F00315
:101F00000A78904207D2502080F31188BFF34F8F98
:101F1000BFF36F8FFEE709480068896800F4E0604E
:101F2000884207D9502080F31188BFF34F8FBFF349
:101F30006F8FFEE710BD00008C0000200CED00E06C
:101F400010B5074B002253F832401CB1521C082A2E
:101F5000F9D310BD43F8321003EBC201486010BD45
:101F6000C800002070B515460E460446FFF74AFF2C
:101F700094F944100020491C01D184F8440094F9DC
:101F80004510491C01D184F84500FFF75BFFA06BA9
:101F900028B92A46314604F1240000F0C9F8204649
:101FA000BDE87040FFF79CBD70B50E4605004FF0D0
:101FB00000030BD096B11E4A106BB8B1502080F3CD
:101FC0001188BFF34F8FBFF36F8FFEE7502080F370
:101FD0001188BFF34F8FBFF36F8FFEE7502080F360
:101FE0001188BFF34F8FBFF36F8FFEE700F0F4F857
:101FF000D2682C68A119944202D98C4202D804E01C
:102000008C4201D8914200D9012329601BB1881A62
:102010000021FFF7E7F900F035FE002807D1054958
:102020004FF080500860BFF34F8FBFF36F8F70BDCC
:102030003C00002004ED00E070B50446FFF7E2FE2E
:10204000254D04B92C68201DFFF75EFE58B9E06AE3
:10205000224A00EB800152F8211021B90121814070
:10206000286988432861A06A18B104F11800FFF7B5
:102070004BFE686A401C68622868844208D1174891
:10208000211DA030FFF7B2FE6868401C686007E0C1
:10209000A868401EA8602046FFF7B5FAFFF79EFC2F
:1020A000FFF7D0FE6869002814D02868844211D157
:1020B000286B38B1502080F31188BFF34F8FBFF3E6
:1020C0006F8FFEE706494FF080500860BFF34F8FD7
:1020D000BFF36F8F70BD00003C000020080100209E
:1020E00004ED00E002490A6A0260C9684160704775
:1020F0003C00002001490120C86170473C000020DD
:1021000010B50C4650B1094909681831FFF756FE61
:102110002046BDE810400121FFF764B9502080F34C
:102120001188BFF34F8FBFF36F8FFEE73C00002095
:1021300070B514460D4668B10A4909681831FFF7B1
:1021400055FE0CB14FF0FF3521462846BDE87040E2
:10215000FFF748B9502080F31188BFF34F8FBFF3CA
:102160006F8FFEE73C0000201CB517480024CDE926
:1021700000402346802215A1164800F04DFC01289E
:1021800003D100F0E1FD012809D0401C1AD15020F4
:1021900080F31188BFF34F8FBFF36F8FFEE750209E
:1021A00080F31188BFF34F8FBFF36F8F06484FF056
:1021B000FF312C38816201214161C460BDE81C40BF
:1021C00000F04AB91CBD00006800002049444C459D
:1021D00000000000691600000248016B491C016301
:1021E000704700003C00002010B51F4C206B10B160
:1021F0000120E06110BD0020E06120684FF0A532B1
:10220000006B0168914208D14168914205D1816813
:10221000914202D1C068904204D0216820683431D4
:10222000FFF79AFD20691149B0FA80F0C0F11F0054
:1022300000EB800051F820206AB101EB800000F132
:102240000802416849684160914201D14968416092
:10225000C868206010BD502080F31188BFF34F8FF5
:10226000BFF36F8FFEE700003C0000200801002054
:1022700008B5642400F010FC00904FF47A7014FB51
:1022800000F5064C0646B5FBF6F16846FFF78CFEF6
:10229000206880F001002060F5E70000C849004098
:1022A00008B50A2400F0F8FB00904FF47A7014FB94
:1022B00000F5064C0646B5FBF6F16846FFF774FEDE
:1022C000206880F001002060F5E70000C049004070
:1022D00008B5322400F0E0FB00904FF47A7014FB54
:1022E00000F5064C0646B5FBF6F16846FFF75CFEC6
:1022F000206880F001002060F5E70000C44900403C
:10230000094CFFF769FF09A0FEF72CFD0D480020DE
:1023100000BF00F0B7FC606820F001006060A068BA
:10232000FFF78AFEEDE70000300000203E3E3E3E13
:102330005461736B5375622044656C6574650D0A56
:10234000000000002C0000201CB50D4E012506F1F8
:1023500008043079C007FCD0CDE9005400234022A6
:1023600008A10B4800F058FBFFF736FF09A0FEF765
:10237000F9FC0E48002000BF00F084FCE9E70000F3
:1023800030000020765461736B53756200000000CA
:10239000012300003E3E3E3E5461736B5375622044
:1023A0004372656174650D0A000000002C00002076
:1023B0001CB54FF4FA7700F06FFB0190780017FB23
:1023C00000F5114C8046B5FBF8F101A8FFF7ECFDD4
:1023D000606840F001006060FFF7FEFEFEF7FCFF62
:1023E000064600F033F80346009620883946401C24
:1023F00082B2228005A0FEF7B5FC1348002000BF82
:1024000000F040FCDFE700003000002052697369F3
:102410006E67466C6167282534646D7329203A2500
:102420003464202868656170203A20253364206276
:1024300079746573202C20435055203A202533644D
:1024400020290D0A000000002C00002001484068EF
:1024500070470000980000201CB537480168374AD3
:10246000914207D1502080F31188BFF34F8FBFF303
:102470006F8FFEE700683149491E884207D150201E
:1024800080F31188BFF34F8FBFF36F8FFEE72C49A6
:1024900008780190FF20087008788DF800009DF8FA
:1024A00000009DF8002000F0F000904207D050207E
:1024B00080F31188BFF34F8FBFF36F8FFEE79DF856
:1024C0000000204B00F0500018700720986006E0D4
:1024D000401E98609DF8000040008DF800009DF8B7
:1024E000000000069868F3D4032807D0502080F33A
:1024F0001188BFF34F8FBFF36F8FFEE74FF440702B
:102500009860019808700C482030016841F470010F
:102510000160016841F070410160FFF7D5FC0020C7
:102520005860FDF7A3FE0848016841F04041016092
:10253000FDF788FE00201CBD00ED00E071C20F41D8
:1025400000E400E08C00002034EF00E02DE9F041D1
:1025500017460E46050018D0FEB105FB06F05430B4
:10256000FFF7FAFA04000ED004F15400BEB1206067
:10257000C4E90F562046012100F014F884F8507089
:1025800000212046A164BDE8F081502080F311882D
:10259000BFF34F8FBFF36F8FFEE70020DFE72460AC
:1025A000E6E7000070B50D46040025D0FFF72AFCD1
:1025B000D4E90F20216802FB001161600021A163B2
:1025C0002168A1600A46D4E90F01401E00FB0121E9
:1025D000E16021464FF0FF3001F8440F487004F1EC
:1025E00010008DB1FFF7DCFB04F12400FFF7D8FBEE
:1025F000FFF728FC012070BD502080F31188BFF345
:102600004F8FBFF36F8FFEE721690029F0D000F0F4
:10261000FFFA0028ECD004494FF080500860BFF367
:102620004F8FBFF36F8FE3E704ED00E02DE9FF4F1D
:1026300083B099468B4604004FF0000603D0BBF1EF
:10264000000F08D011E0502080F31188BFF34F8FA6
:10265000BFF36F8FFEE7206C38B1502080F31188F4
:10266000BFF34F8FBFF36F8FFEE7B9F1020F0AD1AF
:10267000E06B012807D0502080F31188BFF34F8F03
:10268000BFF36F8FFEE700F0F9F9DFF810814FF02C
:10269000000A4FF0805748B9059838B1502080F3B0
:1026A0001188BFF34F8FBFF36F8FFEE7FFF7AAFBD1
:1026B000A06BE16B884206D3B9F1020F03D00598F5
:1026C00000B316B325E04A4659462046FEF765FF9B
:1026D000A16C21B149462046FFF793F805E0616AF5
:1026E00019B104F1240000F093FA28B1C8F8007081
:1026F000BFF34F8FBFF36F8FFFF7A4FB012007B02D
:10270000BDE8F08FFFF79EFB21E06846FFF7EAFC8B
:102710000126FFF797FBFFF75FFDFFF773FB94F9C7
:102720004400401C01D184F844A094F94500401CA9
:1027300001D184F845A0FFF785FB05A9684600F0A4
:1027400031F930B12046FFF7CBF900F09BFA0020B9
:10275000D5E7FFF757FBA06BE16B884201D101255C
:1027600000E00025FFF76EFB95B104F1100005991C
:10277000FFF7C6FC2046FFF7B3F900F083FA002804
:1027800094D1C8F80070BFF34F8FBFF36F8F8DE700
:102790002046FFF7A5F900F075FA87E704ED00E0A1
:1027A0002DE9F047984615468946040003D0B9F153
:1027B000000F08D011E0502080F31188BFF34F8F35
:1027C000BFF36F8FFEE7206C38B1502080F3118883
:1027D000BFF34F8FBFF36F8FFEE7B8F1020F0AD13F
:1027E000E06B012807D0502080F31188BFF34F8F92
:1027F000BFF36F8FFEE7FFF779FB5020EFF31187F0
:1028000080F31188BFF34F8FBFF36F8FA06BE16B25
:10281000884207D3B8F1020F04D0002087F3118853
:10282000BDE8F08794F94560424649462046FEF7E8
:10283000B4FE701C04D0761C84F845600120EDE7DE
:10284000A06C012620B141462046FEF7DAFF06E0E3
:10285000606A0028F2D004F1240000F0D9F90028C1
:10286000ECD0002DEAD02E60E8E700002DE9F74714
:1028700083B08A4604004FF0000603D0BAF1000F7F
:1028800008D011E0502080F31188BFF34F8FBFF3C1
:102890006F8FFEE7206C38B1502080F31188BFF3B2
:1028A0004F8FBFF36F8FFEE700F0E8F8DFF8F0908E
:1028B00000274FF0805848B9059838B1502080F370
:1028C0001188BFF34F8FBFF36F8FFEE7FFF79AFAC0
:1028D000A56BC5B151462046FEF74CFE6D1EA563A3
:1028E000206950B104F1100000F092F928B1C9F844
:1028F0000080BFF34F8FBFF36F8FFFF7A3FA012064
:1029000006B0BDE8F087059808B11EB106E0FFF7F4
:1029100099FA27E06846FFF7E5FB0126FFF792FAF0
:10292000FFF75AFCFFF76EFA94F94400401C01D1FE
:1029300084F8447094F94500401C01D184F8457036
:10294000FFF780FA05A9684600F02CF80028204619
:102950000AD0FFF7C5F800F095F92046FEF744FFCE
:102960000028B3D00020CBE7FEF73EFF90B104F182
:1029700024000599FFF7C4FB2046FFF7B1F800F0EB
:1029800081F90028A2D1C9F80080BFF34F8FBFF3AF
:102990006F8F9BE72046FFF7A3F800F073F995E7E8
:1029A00004ED00E02DE9F0410C46050011D0C4B162
:1029B000FFF728FA174EF1686B682268C81A571C8F
:1029C00017D02F68366AB74219D08B4217D8012426
:1029D00010E0502080F31188BFF34F8FBFF36F8F4B
:1029E000FEE7502080F31188BFF34F8FBFF36F8F46
:1029F000FEE70024FFF726FA2046BDE8F081824278
:102A000005D9101A20602846FFF76CFBF1E700207B
:102A10002060DCE73C0000202DE9FF5F8346DDE914
:102A20000E87994616468A469000FFF795F80500EE
:102A30001AD05C20FFF790F8040012D02563002123
:102A4000CDE90241CDE900874B4632465146584612
:102A5000FEF73AFE2046FEF7FDFC012004B0BDE87B
:102A6000F09F2846FFF702FA4FF0FF30F6E700002C
:102A700001480068704700003C000020054841699B
:102A800019B1006B18B10020704701207047022077
:102A9000704700003C0000200148C06870470000FB
:102AA0003C0000202DE9F041314F0026386B18B171
:102AB000B869401CB86152E0FD686D1CFD6013D11F
:102AC000786B006838B1502080F31188BFF34F8FC6
:102AD000BFF36F8FFEE7786BB96B7963B863386AC1
:102AE000401C3862FEF77AFFB86ADFF888808542BA
:102AF00009D3786B006890B1786BC068C46860686F
:102B000085420FD2B8623868C06A00EB800158F87D
:102B10002100012800D90126B86900B321E04FF057
:102B2000FF30EFE7201DFFF7EFF8A06A18B104F1BE
:102B30001800FFF7E9F8E06A01213A698140114382
:102B4000396100EB800108EB8100211DFFF74EF990
:102B5000E06A3968C96A8842CBD30126C9E7FFF722
:102B600003F9F86900B101263046BDE8F0810000A4
:102B70003C0000200801002070B504004FF0000068
:102B800041D0214D29688C4207D0502080F3118814
:102B9000BFF34F8FBFF36F8FFEE7216D71B1491EF9
:102BA0002165E36CE26A9A422DD000292BD1201DC9
:102BB000FFF7AAF81549012240B112E0502080F336
:102BC0001188BFF34F8FBFF36F8FFEE7E06A00EB12
:102BD000800351F8233023B92B6902FA00F08343B4
:102BE0002B61E06CE062C0F10500A061E06A2B6936
:102BF00082401A432A6100EB800001EB8000211D16
:102C0000FFF7F4F8012070BD3C000020080100200F
:102C10002DE9F041C068C468ACB104F11800074662
:102C2000FFF772F8154D286B0126A0B139461448FC
:102C3000FFF7DCF8E06A2968C96A88421CD90120DC
:102C4000EE61BDE8F081502080F31188BFF34F8F13
:102C5000BFF36F8FFEE7201DFFF756F8E06A2A6981
:102C600006FA00F111432961054900EB80008C3917
:102C700001EB8000211DDBE70020E2E73C000020A3
:102C8000940100202DE9F0472C4D00242746286BA5
:102C900038B1FFF7B7F8286B401E2863286B40B1A6
:102CA00046E0502080F31188BFF34F8FBFF36F8F42
:102CB000FEE7A86822490126D0B3A1F18C09884615
:102CC000D8F80010E9B1D8F80C00C46804F1180075
:102CD000FFF71AF8201DFFF717F8E06A2A6906FACD
:102CE00000F11143296100EB800109EB8100211DF6
:102CF000FFF77CF8E06A2968C96A8842E0D3EE6190
:102D0000DEE70CB1FEF76AFEAC693CB1FFF7CAFE24
:102D100000B1EE61641EF9D10020A861E86938B104
:102D20000849012738070860BFF34F8FBFF36F8F43
:102D3000FFF788F83846BDE8F08700003C00002027
:102D40009401002004ED00E01CB5FEF7EBFB0C48FD
:102D5000006860B10A490220091DCDE90001C201E5
:102D6000002308A10948FFF757FE002807D150208B
:102D700080F31188BFF34F8FBFF36F8FFEE71CBD49
:102D800078000020546D722053766300B91A000059
:102D9000FEB51F460300089E4FF0000013D0124DF1
:102DA0002C68002C0ED08DE80E00062915DAFFF7EE
:102DB00065FE02284FF000030DD000226946286806
:102DC000FFF734FCFEBD502080F31188BFF34F8F16
:102DD000BFF36F8FFEE73246F0E700233A466946BD
:102DE0002046FFF7DDFCFEBD78000020001BB70089
:102DF0000000000000800000001BB700001BB700AF
:102E00000000000000800000001BB700001BB7009E
:102E10000000000000800000001BB700001BB7008E
:102E20000080000000000000000000000000000022
:102E30001027000000000000001BB7005C2E0000FF
:102E400000000020C8000000840D0000242F0000B6
:102E5000C800002030490000940D0000001BB7009E
:102E60000C000000001BB700001BB7000080000032
:102E7000000000001027000000000000000000001B
:102E800000000000001BB700000000000000000070
:102E90000000000000000000000000000000000032
:102EA0000000000000000000000000000000000022
:102EB0000000000000000000000000000000000012
:102EC0000000000000000000000000000000000002
:102ED00000000000000000000000000000000000F2
:102EE000000000000000000000000000AAAAAAAA3A
:102EF00000000000000000000000000000000000D2
:102F000000000000000000000000000000000000C1
:102F100000000000000000000000000000000000B1
:042F200000000000AD
:04000005000002E510
:00000001FF
